:020000040800F2
:1000000000C0002045070008553B0008573B00088A
:10001000593B00085B3B00085D3B00080000000006
:100020000000000000000000000000005F3B00082E
:10003000613B000800000000633B0008653B0008CE
:100040008907000889070008890700088907000850
:100050008907000889070008890700088907000840
:100060008907000889070008890700088907000830
:100070008907000889070008890700088907000820
:1000800089070008890700088907000800000000A8
:1000900000000000000000000000000089070008C8
:1000A00089070008890700088907000889070008F0
:1000B000693B0008890700088907000889070008CC
:1000C00089070008890700088907000889070008D0
:1000D00089070008E13B0008890700088907000834
:1000E00089070008890700088907000889070008B0
:1000F00089070008890700080000000000000000D0
:100100008907000800000000890700088907000827
:10011000890700088907000889070008890700087F
:10012000890700088907000889070008890700086F
:100130008907000800000000000000000000000027
:1001400000000000000000000000000000000000AF
:10015000000000000000000000000000000000009F
:10016000000000000000000000000000000000008F
:10017000000000000000000000000000000000007F
:10018000000000000000000000000000000000006F
:10019000000000000000000000000000000000005F
:1001A000000000000000000000000000000000004F
:1001B000000000000000000000000000000000003F
:1001C000000000000000000000000000000000002F
:1001D000000000000000000000000000000000001F
:0401E0005FF808F1CB
:1001E4004FF0FF0C1CEAD0521EBF1CEAD15392EA16
:1001F4000C0F93EA0C0F6FD01A4480EA010C4002F2
:1002040018BF5FEA41211ED04FF0006343EA50104B
:1002140043EA5111A0FB01310CF00040B1F5000F8D
:100224003EBF490041EAD3715B0040EA010062F13C
:100234007F02FD2A1DD8B3F1004F40EBC25008BF26
:1002440020F00100704790F0000F0CF0004C08BF44
:1002540049024CEA502040EA51207F3AC2BFD2F111
:10026400FF0340EAC250704740F400004FF000031F
:10027400013A5DDC12F1190FDCBF00F00040704759
:10028400C2F10002410021FA02F1C2F1200200FA97
:1002940002FC5FEA310040F1000053EA4C0308BF5E
:1002A40020EADC70704792F0000F00F0004C02BFAF
:1002B400400010F4000F013AF9D040EA0C0093F02A
:1002C400000F01F0004C02BF490011F4000F013B84
:1002D400F9D041EA0C018FE70CEAD15392EA0C0FF2
:1002E40018BF93EA0C0F0AD030F0004C18BF31F05D
:1002F400004CD8D180EA010000F00040704790F033
:10030400000F17BF90F0004F084691F0000F91F0D6
:10031400004F14D092EA0C0F01D142020FD193EA9C
:100324000C0F03D14B0218BF084608D180EA010024
:1003340000F0004040F0FE4040F40000704740F000
:10034400FE4040F44000704780F0004002E000BFEF
:1003540081F0004142001FBF5FEA410392EA030FAC
:100364007FEA226C7FEA236C6AD04FEA1262D2EBF6
:100374001363C1BFD218414048404140B8BF5B42FB
:10038400192B88BF704710F0004F40F4000020F094
:100394007F4018BF404211F0004F41F4000121F0AA
:1003A4007F4118BF494292EA030F3FD0A2F10102F4
:1003B40041FA03FC10EB0C00C3F1200301FA03F132
:1003C40000F0004302D5494260EB4000B0F5000F55
:1003D40013D3B0F1807F06D340084FEA310102F114
:1003E4000102FE2A51D2B1F1004F40EBC25008BFC6
:1003F40020F0010040EA03007047490040EB000090
:10040400013A28BFB0F5000FEDD2B0FA80FCACF190
:10041400080CB2EB0C0200FA0CF0AABF00EBC250BD
:1004240052421843BCBFD0401843704792F0000FAB
:1004340081F4000106BF80F400000132013BB5E7FE
:100444004FEA41037FEA226C18BF7FEA236C21D074
:1004540092EA030F04D092F0000F08BF08467047D9
:1004640090EA010F1CBF0020704712F07F4F04D1A7
:10047400400028BF40F00040704712F100723CBFBA
:1004840000F50000704700F0004343F0FE4040F4E4
:10049400000070477FEA226216BF08467FEA2363A2
:1004A4000146420206BF5FEA412390EA010F40F48D
:1004B400800070474FF0000304E000BF10F00043D9
:1004C40048BF40425FEA000C08BF704743F09643C0
:1004D40001464FF000001CE050EA010208BF7047DB
:1004E4004FF000030AE000BF50EA010208BF704762
:1004F40011F0004302D5404261EB41015FEA010C77
:1005040002BF84460146002043F0B64308BFA3F16E
:100514008053A3F50003BCFA8CF2083AA3EBC25350
:1005240010DB01FA02FC634400FA02FCC2F120026F
:10053400BCF1004F20FA02F243EB020008BF20F0A6
:100544000100704702F1200201FA02FCC2F120020C
:1005540050EA4C0021FA02F243EB020008BF20EA01
:10056400DC7070474FF0FF3C06E000BF4FF0010C19
:1005740002E000BF4FF0010C4DF804CD4FEA4002F9
:100584004FEA41037FEA226C18BF7FEA236C11D043
:1005940001B052EA530C18BF90EA010F58BFB2EBF6
:1005A400030088BFC81738BF6FEAE17018BF40F076
:1005B400010070477FEA226C02D15FEA402C05D12A
:1005C4007FEA236CE4D15FEA412CE1D05DF8040BAF
:1005D400704700BF844608466146FFE70FB5FFF742
:1005E400C9FF002848BF10F1000F0FBD4DF808EDFA
:1005F400FFF7F4FF0CBF012000205DF808FB00BFEB
:100604004DF808EDFFF7EAFF34BF012000205DF844
:1006140008FB00BF4DF808EDFFF7E0FF94BF012091
:1006240000205DF808FB00BF4DF808EDFFF7D2FF8E
:1006340094BF012000205DF808FB00BF4DF808EDD1
:10064400FFF7C8FF34BF012000205DF808FB00BF9E
:100654004FEA4002B2F1FE4F0FD34FF09E03B3EBCB
:1006640012620DD94FEA002343F0004310F0004F0B
:1006740023FA02F018BF404270474FF00000704761
:1006840012F1610F01D1420205D110F0004008BF00
:100694006FF0004070474FF00000704742000ED2E8
:1006A400B2F1FE4F0BD34FF09E03B3EB126209D4A9
:1006B4004FEA002343F0004323FA02F070474FF05F
:1006C4000000704712F1610F01D1420202D14FF0D4
:1006D400FF3070474FF00000704700BF10F8012B47
:1006E40011F8013B012A28BF9A42F7D0D01A70476B
:1006F400034613F8012B002AFBD1181A013870475E
:1007040010B5054C237833B9044B13B10448AFF347
:1007140000800123237010BD84000020000000002D
:100724000C58000808B5034B1BB103490348AFF349
:10073400008008BD00000000880000200C5800085C
:10074400002103E00A4B5B584350043109480A4B2B
:1007540042189A42F6D3094A02E0002342F8043BC5
:10076400074B9A42F9D303F0B1FA03F0ADF970479D
:10077400406600080000002084000020840000205F
:100784004C040020FEE7000008B5102302221146A5
:10079400014800F0DBF808BD0010014010B500244A
:1007A40004E00134E4B2012002F0BAF80F4BD3F8AC
:1007B4000031BBB1632CF4D9002404E00134E4B269
:1007C400012002F0ADF8094BD3F800310BB9632CCA
:1007D400F4D9282002F0A4F8044BD3F800311BB15B
:1007E400012010BD1C46EEE71846FAE7000022423D
:1007F40038B50020054607E04000C4B2FFF7CEFF3D
:100804002043C0B20135EDB2072DF5D938BD000043
:1008140008B5102303220121014800F08AF808BD1D
:100824000010014010B5FFF7F3FF074C0023C4F894
:100834008031142002F096F80123C4F880311E2080
:1008440002F06EF810BD00BF0000224208B5482334
:1008540003220121014800F06CF808BD001001409A
:1008640010B5FFF7F3FF0024114BD3F800313BB16F
:10087400632C05D80134E4B2012002F051F8F3E707
:10088400632C10D8002404E00134E4B2012002F007
:1008940047F8074BD3F800310BB9632CF4D9632C18
:1008A40003D8002010BD0120FCE70120FAE700BFB7
:1008B4000000224208B50121102001F075FDFFF768
:1008C400B1FFFFF7CDFF08BD70B582B00646FFF754
:1008D400A9FFFFF7C5FF10B9054604460DE0012343
:1008E4001D46284602B070BDFFF782FF04F10803DD
:1008F4006B4403F8080C0134E4B2042CF4D99DF8D9
:1009040000C09DF801400CEB0403DBB29DF802002B
:100914000344DBB29DF803100B44DBB29DF80420C2
:100924009342DCD186F800C07470B070F1703271FB
:10093400D7E700B583B08DF80730ADF804108DF813
:10094400062001A901F02AFC03B000BDF8B5044655
:100954000D4616461F46204B984218D01F4B98420E
:100964001AD01F4B98421CD01E4B98421ED01E4BCF
:10097400984220D01D4B984222D01D4B984224D03F
:100984003B46324629462046FFF7D3FFF8BD0121F6
:10099400042001F009FDF3E70121082001F004FD22
:1009A400EEE70121102001F0FFFCE9E701212020FE
:1009B40001F0FAFCE4E70121402001F0F5FCDFE757
:1009C4000121802001F0F0FCDAE701214FF480706E
:1009D40001F0EAFCD4E700BF00080140000C01402C
:1009E400001001400014014000180140001C0140A7
:1009F4000020014010B5064C102302220C21204691
:100A0400FFF7A4FF0C21204601F02EFC10BD00BF0F
:100A140000100140B0F57A7F07D2431E9BB2B3F5B4
:100A2400AE7F04D84FF4AF7001E040F2E730014BE1
:100A340018807047A600002000B585B08E469C46FD
:100A440001A9002301934B600B81ADF80420BDF88C
:100A54001830ADF80630ADF808E0ADF80AC001F082
:100A6400FBFC05B000BD10B584B004460020009026
:100A7400019002900390ADF800300123ADF80230EC
:100A8400ADF80620BDF81830ADF808300139032957
:100A94000BD8DFE801F0020C151E6946204601F070
:100AA40023FD0821204601F037FE04B010BD69463D
:100AB400204601F05BFD0821204601F033FEF4E7F7
:100AC4006946204601F096FD0821204601F032FED9
:100AD400EBE76946204601F0CFFD0821204601F0EE
:100AE4002FFEE2E730B583B00121042001F05CFC65
:100AF4000121082001F066FC154C1823032204216F
:100B04002046FFF716FF1823032208212046FFF78B
:100B140010FF104D002400942346472240F2E73191
:100B24002846FFF789FF00946023224603212846C4
:100B3400FFF799FF00946023224604212846FFF71B
:100B440092FF0121284601F0CFFD03B030BD00BF64
:100B540000080140000C004010B51C4B1B88BBB1C1
:100B64001B4A148814B9B3F5AF7F18D2184B1B88ED
:100B7400164A1288934219D264339BB214490B80EB
:100B84009A4200D20A80124B1988A14219D110BD91
:100B940019460F4B19800F4801F0DAFDF7E74FF4BF
:100BA400AF7111800B4801F0D3FDDFE7EBD9642B63
:100BB40003D9643B064A1380E5E7054B00221A80FB
:100BC400E1E7044801F0C4FDE1E700BFA60000200E
:100BD400A4000020000C004008B5034B01221A7049
:100BE400FFF718FF08BD00BFA300002010B5FFF7F2
:100BF400CBFDFFF777FF084C0221204601F036FBBE
:100C04000821204601F030FB0020FFF703FF034BCF
:100C140000221A7010BD00BF00100140A90000207E
:100C240070B504460E461D461046FFF747FC2146A4
:100C3400FFF704FD40B92846FFF740FC2146FFF7C3
:100C4400DFFCA0B9044600E00124BDF91000FFF761
:100C540035FC3146FFF7F2FC58B9BDF91400FFF733
:100C64002DFC3146FFF7CCFC20B1012402E0012425
:100C7400EBE70124104B1B78A34204D00F4B002256
:100C84001A700D4B1C707CB108210D4801F0EEFA6E
:100C94000A4B1B7823B964B14FF4FA70FFF7BAFE1C
:100CA400084B1C70204670BD0821054801F0DCFA91
:100CB400EEE72046F2E700BFA0000020A3000020DA
:100CC40000100140A800002010B5FFF745FF1D4BA0
:100CD4001B781BB31C4B1B78032B29D804231C46FD
:100CE40003221A4B1B78934226D20221184801F0A2
:100CF400BBFA164A13780133DBB21370A34216D33E
:100D0400124B00221A70104A13780133DBB21370AD
:100D1400072B0CD9134600221A7008E002210C4854
:100D240001F0A4FA0023084A1370084A137010BD96
:100D340002231C460122D4E70221054801F096FA59
:100D4400D7E700BFA8000020A2000020A1000020D7
:100D5400001001400020704770B586B0012141F2B7
:100D6400040001F021FB1026ADF8006003238DF888
:100D740002304FF010038DF80330244C69462046AE
:100D840001F00CFA2023ADF8003018238DF803305D
:100D94006946204601F002FA4023ADF80030694666
:100DA400204601F0FBF98023ADF800306946204667
:100DB40001F0F4F93146204601F056FA0023ADF86B
:100DC40004304FF48272ADF80620ADF808300222E8
:100DD400ADF80A200125ADF80C504FF40072ADF8BF
:100DE4000E200822ADF81020ADF812300723ADF81C
:100DF400143004F5205401A9204601F0F1FA2946E3
:100E0400204601F012FB06B070BD00BF000801408F
:100E140010B50446184B4FF480521A60022117484B
:100E240001F012FB50B9144A1368591E1160002BCB
:100E3400F4D11846FFF78EFFC0B210BD21460F480B
:100E440001F0FEFA0C4B4FF480521A6001210B485A
:100E540001F0FAFA50B9084A1368591E1160002BC0
:100E6400F4D10120FFF776FFC0B2E6E7034801F0B2
:100E7400E9FAC0B2E1E700BF000000200030014001
:100E840070B506460C4615461021104801F0EEF9DF
:100E94000320FFF7BDFFC4F30740FFF7B9FFC4F316
:100EA4000720FFF7B5FFE0B2FFF7B2FF05E0FF2030
:100EB400FFF7AEFF06F8010B25466B1E9CB2002D12
:100EC400F5D11021014801F0CFF970BD00080140AF
:100ED400F8B50F4C1021204601F0C8F99F20FFF708
:100EE40097FFFF20FFF794FF0546FF20FFF790FFD1
:100EF4000746FF20FFF78CFF06461021204601F02D
:100F0400B3F93B0243EA054330461843F8BD00BF3A
:100F14000008014010B5064C1021204601F0A6F946
:100F24000620FFF775FF1021204601F09DF910BD42
:100F34000008014008B51021084801F097F9052080
:100F4400FFF766FFFF20FFF763FF10F0010FF9D1F1
:100F54001021024801F088F908BD00BF00080140D3
:100F640038B50446FFF7D6FFFFF7E4FF0C4D102118
:100F7400284601F07BF92020FFF74AFFC4F307401D
:100F8400FFF746FFC4F30720FFF742FFE0B2FFF785
:100F94003FFF1021284601F067F9FFF7CBFF38BD6A
:100FA4000008014070B506460C461546FFF7B2FF2F
:100FB4001021134801F05AF90220FFF729FFC4F366
:100FC4000740FFF725FFC4F30720FFF721FFE0B236
:100FD400FFF71EFFB5F5807F07D94FF4807504E055
:100FE40016F8010BFFF714FF25466B1E9CB2002D6B
:100FF400F6D11021024801F037F9FFF79BFF70BDCD
:10100400000801402DE9F04105460C46C9B2130A17
:10101400D7B2D9B973B92146FFF7C4FF0EE04FF434
:10102400807221462846FFF7BDFF04F5807405F55C
:10103400807533465E1E002BF1D10FB9BDE8F081F7
:101044003A4621462846FFF7ADFFF7E7C1F580761B
:1010540093B9BE420CD2A1F580710F44B2B22146BD
:10106400FFF7A0FFBAB2A119A819FFF79BFFE5E7A4
:101074002146FFF797FFE1E7B1B2531AC3F30727FD
:10108400DBB298460A462146FFF78CFF34443544C8
:101094000AE04FF4807221462846FFF783FF04F5E7
:1010A400807405F5807537467E1E002FF1D14346C6
:1010B400002BC3D0424621462846FFF773FFBDE705
:1010C40000F5FA600003704700B583B001460422BE
:1010D4000DEB0200FFF7D4FE0198B0F1FF3F14BFFF
:1010E4000020012003B000BDF8B500271C4B1F6091
:1010F4001C4B1F701C4B1F802F2F1FD83846FFF727
:10110400DFFF06460024B4F5007F14D206EBC405C5
:101114002846FFF7D9FF30B9114A13680133136029
:101124000134A4B2EFE7114B1D600E4B1F70E400B5
:101134000D4B1C80F8BD0137FFB2DDE70020FFF73F
:10114400BFFF0446FFF70CFF084B1C600023054A51
:101154001370054A1380024B4FF4C0421A60E9E74A
:10116400B0000020AC000020AA000020B400002041
:1011740008B5FFF7F1FDFFF7ABFE084B984209D025
:101184000023074A1360074A1360074A1370074A8B
:10119400138008BDFFF7A8FFFBE700BF1740EF006F
:1011A400B4000020B0000020AC000020AA00002001
:1011B400F0B585B00C46324B196809B905B0F0BDDD
:1011C40005460290039408220DEB0200FFF71AFF74
:1011D4002846FFF73DFA0746FFF770F9014628460F
:1011E400FFF7B6F82749FEF7FBFF4FF07C51FFF7F6
:1011F400B1F8FFF72DFA06462046FFF729FA05460F
:10120400FFF75CF901462046FFF7A2F81D49FEF7F7
:10121400E7FF4FF07C51FFF79DF8FFF719FA1A4CDE
:101224000190009533463A462168184802F03AFE88
:10123400134A136808331360154A138808339BB2A2
:101244001380226801322260B3F5805FB6D3114A5D
:1012540013780133DBB213702F2B09D80D4B187898
:10126400FFF72EFF064B1860094B00221A80A5E7F2
:1012740000201070FFF724FFFFF772FEEEE700BFB7
:10128400B400002000002041B000002030580008C5
:10129400AA000020AC000020014B1868704700BF72
:1012A400B000002010B50F4802F066FE002406E0EE
:1012B4002046FFF705FFFFF753FE0134E4B22F2C5D
:1012C400F6D90020FFF7FCFE074B18600023074AFD
:1012D4001370074A1380074A1360074802F04CFE54
:1012E40010BD00BF58580008B4000020AC00002016
:1012F400AA000020B0000020745800082DE9F04333
:1013040083B08146884617461E46002418E0002014
:10131400FFF7D6FE124BA3FB053C4FEA9C3C0CEBBB
:101324004C0CA5EB4C3C082200EBCC016846FFF7C3
:10133400A7FD009B49F82430019B48F82430013470
:10134400B4420AD2E519074B1B689D42DFD3002340
:1013540049F8243048F82430F1E703B0BDE8F083BD
:10136400ABAAAAAAB00000200B4B1A780B4B1B782F
:101374009A420ED00A4AD25C027001335A4203F0F8
:101384003F0302F03F0258BF5342044A1370012046
:1013940070470020704700BFB9000020B80000204B
:1013A400BC000020F0B583B006460D4600273C463D
:1013B4000DE000233355E71A18BF0127384603B060
:1013C400F0BD631C9DF807203255DCB201276B1E6B
:1013D4009C4216DA0DF10700FFF7C6FF88B19DF8AD
:1013E40007300D2BF2D00A2BE3D0A3F12002D2B2A6
:1013F4005E2AEBD8613BDBB2192BE2D88DF80720CB
:10140400DFE7002FDAD014B100273755D6E7274697
:10141400D4E700002DE9F0478AB004460622A1492A
:1014240002F0E2FE002839D004229F49204602F04F
:10143400DBFE00284BD005229C49204602F0D4FE56
:10144400002863D003229A49204602F0CDFE0028EA
:101454006CD004229749204602F0C6FE002840F0D2
:10146400C380FFF719FF0546002302930390002869
:101474005FD003AB02AA9049204602F0A7FD0028E2
:1014840060DD0299A94258D201285BDD039B13B1A8
:101494000B44AB4259D9691A039156E0874802F0CC
:1014A4006BFD874BB3F90020864BB3F900108648D7
:1014B40002F0F8FC854BB3F90020854BB3F900101A
:1014C400844802F0EFFC844802F056FD29E083488A
:1014D40002F052FD824802F04FFD824802F0E2FC25
:1014E400814802F049FD814802F046FD804802F03F
:1014F40043FD804802F040FD7F4802F03DFD7F48F7
:1015040002F03AFD7E4802F037FD0AE07D4A137886
:10151400B3FA83F35B09137013782BB17A4802F0A2
:10152400C1FC0AB0BDE8F0877848F8E702F066FA33
:10153400F7E7774802F020FDF3E76A1E754802F0EA
:10154400B1FCEEE7029BEB1A03930399029A8B1802
:10155400013B714802F0A6FC00243EE00123029AFC
:10156400224405A904A8FFF7C9FE029B1D19049E85
:101574003046FFF76DF88246FEF7A0FF014630467D
:10158400FEF7E6FE6549FEF72BFE4FF07C51FEF7B1
:10159400E1FE8146059E3046FFF75AF80746FEF7FE
:1015A4008DFF01463046FEF7D3FE5C49FEF718FE78
:1015B4004FF07C51FEF7CEFE80464846FFF748F8D0
:1015C40006464046FFF744F80190009733465246DA
:1015D4002946534802F066FC0134039BA342BDD85C
:1015E400504802F0C9FC9CE706AB009307AB08AA7D
:1015F4004D49204602F0EAFC022805DD4B4908A8C3
:10160400FFF76CF800282AD006AB009307AB08AAB2
:101614004549204602F0DAFC022805DD444908A8C1
:10162400FFF75CF8002831D007AB08AA41492046EF
:1016340002F0CCFC012806DD3F4908A8FFF74EF86C
:10164400002800F08F802378002B3FF46AAF2146F6
:101654003A4802F027FC3A4802F08EFC61E7079909
:10166400069A914204DA11F1280F01DB502A03DDB6
:10167400344802F081FC54E709B2124B198012B2CB
:101684000F4B1A80304802F00DFC4AE70799069A7E
:10169400914203DA814201DB642A59DD2B4802F0CE
:1016A4006BFC3EE79458000810590008045B0008DE
:1016B4000C5B0008105B00082C5B00089C580008B9
:1016C400080000200A000020B85800080400002088
:1016D40006000020D4580008F058000818590008E3
:1016E4003859000874590008B0590008E459000832
:1016F400205A0008545A00088C5A0008BC5A0008A2
:10170400E45A0008F90200207C58000888580008B0
:10171400185B00083C5B00086C5B0008000020417B
:10172400385800089C5B0008C45B0008D05B0008C4
:101734004C5C0008C85C0008D05C0008145D00081C
:10174400345D0008085C0008D85B0008805C000871
:1017540009B2114B198012B2104B1A80104802F0D2
:10176400A1FBDEE60798B0F57A7F11D280B2FFF7CD
:1017740033FA0799642301FB03F30A4A82FB030249
:101784001A44DB17C3EB6222074802F08BFBC8E65E
:10179400064802F0F1FBC4E6060000200400002025
:1017A400545C000821053483D45C0008F45C000810
:1017B40010B582B000230D4A13700D4A1370252210
:1017C4008DF804208DF8053002238DF806300124AD
:1017D4008DF8074001A800F0A1FC224640F22551F3
:1017E400044801F034F802B010BD00BFB900002075
:1017F400B800002000380140014BB3F900007047E5
:101804000A000020014BB3F90000704708000020D3
:10181400014BB3F90000704706000020014BB3F9F7
:101824000000704704000020114B19784B1C5A42E9
:1018340003F03F0302F03F0258BF5342DBB20D4AAC
:1018440012789A4204D00C4A5054094A13707047D3
:101854000132D2F1000C02F03F020CF03F0C58BFF1
:10186400CCF10002DFF80CC08CF80020EBE700BFDD
:10187400B9000020B8000020BC00002000B591B0E1
:1018840002E06846FFF7C6FD40216846FFF78AFD7F
:101894000028F6D111B000BD70B504460E461349B8
:1018A400FEF7AEFE38B912492046FEF7B3FE80B10A
:1018B40001231D4601E000231D460E493046FEF774
:1018C4009FFE48B90C493046FEF7A4FE60B10123DF
:1018D40003E002231D46F0E7002303EB43032B44FC
:1018E400064A52F8230070BD0223F6E70000D041F7
:1018F40000000C420000A0410000AA42B85E0008AB
:1019040008B50249024801F093FF08BDFC0000201D
:10191400FE00002008B5034B1988034B188801F01A
:101924007DFF08BDFC000020FE000020424B1B8808
:10193400012B7FD92DE9F04F83B03B2B0AD93F4BC4
:101944001B880193FFF7DCFF4FF4784001F07CFF24
:10195400002765E000230193F4E7019A3A443848EC
:1019640080FB02151544D117C1EB6511C1EB0111C0
:10197400A2EB8101013280FB02501044D617C6EB62
:101984006016C6EB0616A2EB8606DB1B4FF0BA0BFD
:101994000BFB03F3DFF8AC90A9FB0323C3F3CF03E2
:1019A400C3F1C6039BB20093DFF89CA08BB2274916
:1019B4005AF82300FEF714FCFEF770FE80B2C0EB69
:1019C4004015AD00DFF88880A8FB0535C5F34F1539
:1019D400C5F18A05ADB2023CE41B0BFB04F4A9FB80
:1019E4000494C4F3CF04C4F1C604A4B2B6B2174934
:1019F4005AF82600FEF7F4FBFEF750FE80B2C0EB67
:101A040040139B00A8FB0383C3F34F13C3F18A0362
:101A14009BB222462946009801F0ECFD0137BFB283
:101A2400054B1C88631E9F4297DBFFF773FF03B0CF
:101A3400BDE8F08F704700BF0C0100200E010020AC
:101A440089888888BF3CB62200020020000020411B
:101A5400D34D6210434B1B88012B40F281802DE94A
:101A6400F04F83B03B2B09D93F4B1B880193FFF701
:101A740047FF1F2001F0E8FE002767E000230193E1
:101A8400F5E7019A3A44394880FB02141444D1170B
:101A9400C1EB6411C1EB0111A2EB8101013280FBA6
:101AA40002401044D617C6EB6016C6EB0616A2EB2E
:101AB4008606DB1B4FF0BA0B0BFB03F3DFF8B09089
:101AC400A9FB0323C3F3CF03C3F1C6039BB2009363
:101AD400DFF8A0A08BB228495AF82300FEF780FB58
:101AE400FEF7DCFD80B2C838C0EB4014A400DFF878
:101AF4008C80A8FB0434C4F30F24C4F59574A4B2F9
:101B0400023DED1B0BFB05F5A9FB0595C5F3CF05C0
:101B1400C5F1C605ADB2B6B217495AF82600FEF7AC
:101B24005FFBFEF7BBFD80B2C838C0EB40139B00DF
:101B3400A8FB0383C3F30F23C3F595739BB22A4613
:101B44002146009801F056FD0137BFB2054B1D88B0
:101B54006B1E9F4295DBFFF7DDFE03B0BDE8F08FFF
:101B6400704700BF0C0100200E010020898888887E
:101B7400BF3CB622100100200000204191739F5DFC
:101B840008B5FFF7BDFE48F2104001F05DFEA0234A
:101B9400EF221946002001F02DFDFFF7BBFE08BD22
:101BA4002DE9F04391B005460C46FFF775FE064655
:101BB4002846FEF74DFD8146FEF780FC0146284687
:101BC400FEF7C6FB2849FEF70BFB4FF07C51FEF7EE
:101BD400C1FBFEF73DFD80462046FEF739FD074672
:101BE400FEF76CFC01462046FEF7B2FB1E49FEF7E9
:101BF400F7FA4FF07C51FEF7ADFBFEF729FD0546E1
:101C0400FFF77EFE002001F025FE1023F022902134
:101C1400002001F0C7FC04AC0296019500974346EE
:101C24004A461249204602F0AFF94FF6FF7001F020
:101C34000BFE002001F00EFE2046FEF759FD80B297
:101C4400C00080B2C0F1F000401080B2012808D971
:101C540004AA902101F0B4FDFFF75CFE11B0BDE8C9
:101C6400F0830220F4E700BF000020415C5D00081F
:101C740070B582B004460D46164608E00123009371
:101C840004223146204601F007FD0634A4B2E31CC9
:101C9400AB42F3DBAC4201D302B070BD2D1B012378
:101CA4000093AAB23146204601F0F6FCF4E70000A6
:101CB40070B582B0FFF724FE002001F0CBFD7C2339
:101CC400BA220E210C2001F06DFC4FF6FF7001F0DA
:101CD400BBFD8A23C6220E21104601F08BFC8A2309
:101CE400C62219460C2001F085FC002532E0C5EB24
:101CF4004514A400284BA3FB0434C4F30F14C4F10B
:101D04008A06B6B23346CB223146C62001F072FCB5
:101D140043F6E71001F098FD3246C5210C20FFF789
:101D2400A7FF4FF6FF7001F08FFD2A461B49684656
:101D340002F02AF94FF6FF7001F086FD002001F051
:101D440089FDC4F182016A4689B2CB2001F038FDD5
:101D54000A352DB2322DCADD4FF6FF7001F074FD45
:101D64001423C3220E21C62001F044FC1423C922EB
:101D74000E21C62001F03EFC872312228A210C206A
:101D840001F038FC8D2312228A210C2001F032FC50
:101D9400FFF7C0FD02B070BD1F85EB51745D0008F4
:101DA40070B582B0FFF7ACFD002001F053FD7C2339
:101DB400BA22AE210C2001F0F5FB4FF6FF7001F0C2
:101DC40043FD4FF49573C622AE21104601F012FC78
:101DD4004FF49573C62219460C2001F00BFC142510
:101DE40035E0A5F11404C4EB4414A40064082B4B9F
:101DF400A3FB0434C4F34F14C4F59576B6B233464A
:101E0400CB223146C62001F0F5FB43F6E71001F082
:101E14001BFD3246C5210C20FFF72AFF4FF6FF7049
:101E240001F012FD2A461E49684602F0ADF84FF64D
:101E3400FF7001F009FD002001F00CFDC4F5917163
:101E44006A4689B2CB2001F0BBFC0A352DB25A2D6B
:101E5400C7DD4FF6FF7001F0F7FCB423C322AE21B7
:101E6400C62001F0C7FBB423C922AE21C62001F06D
:101E7400C1FB40F2271312224FF495710C2001F09C
:101E8400B9FB40F22D1312224FF495710C2001F08E
:101E9400B1FBFFF73FFD02B070BD00BFEBA00EEA3F
:101EA400785D0008014B1868704700BF08010020E6
:101EB400014B1868704700BF04010020014B1878DB
:101EC400704700BF0001002008B5FFF759FEFFF777
:101ED400EFFEFFF765FF08BD08B5002001F0BAFC6E
:101EE4004FF4A073F0220021084601F05BFBFFF7DA
:101EF400EBFFFEF7DFFC0023024A1380024A138043
:101F040008BD00BF0E0100200C01002008B500230D
:101F1400034A1380034A1380FFF7D6FF08BD00BFAE
:101F24000E0100200C01002030B583B06846FEF796
:101F3400CBFC00285FD19DF80200FEF7BBFA0446F3
:101F44009DF80300FEF7B6FA2C49FEF749F901465D
:101F54002046FEF7FFF905469DF80000FEF7AAFAB1
:101F640004469DF80100FEF7A5FA2449FEF738F966
:101F740001462046FEF7EEF9044621492846FEF7BD
:101F84005DFB00B11E4D1F492046FEF739FB30B9F9
:101F94001D492046FEF752FB10B11B4C00E0194CC2
:101FA4001A490A881A4B43F822501A4B43F8224024
:101FB4000132194B83FB020313445B11C3EB03137C
:101FC400A2EB83030B80154B1B883B2B02D80133F8
:101FD400124A1380124B1D60124B1C60124B0122DB
:101FE4001A70FFF771FFFFF7A1FCFFF733FD2146DD
:101FF4002846FFF7D5FD03B030BD00BFCDCCCC3DA6
:10200400000048420000A0410000B4420E0100203C
:102014000002002010010020898888880C0100201B
:1020240008010020040100200001002030B587B021
:10203400012144F2040000F0B7F94FF40073ADF845
:10204400143003238DF8163018238DF8173005AD9E
:10205400154C2946204600F0A1F84FF48063ADF8F2
:10206400143004238DF817302946204600F096F8E2
:102074004FF4E13301930023ADF80830ADF80A3092
:10208400ADF80C30ADF810300C23ADF80E3004F57B
:10209400405401A9204600F071FB0121204600F0C4
:1020A400CBFB07B030BD00BF000801400139012956
:1020B40004D870B516461D4600240FE009230360BA
:1020C4004FF0FF3070478021064800F0E3FB002802
:1020D400F9D0315D034800F0D5FB0134AC42F2D3B2
:1020E400284670BD00380140002070471D2303605E
:1020F4004FF0FF307047092303604FF0FF30704703
:10210400092303604FF0FF3070470139012903D9D7
:10211400092303600020704701207047C378EBB1A6
:10212400144BDB68DB43C3F30223C3F1040C0F211C
:10213400D940427802FA0CF283780B4013430278B8
:102144001B010D490A4482F80033037803F01F0091
:102154005B090122824041F823207047037803F091
:102164001F015B0901228A402033034941F82320DF
:10217400704700BF00ED00E000E100E0042806D055
:102184004FF0E022136923F00403136170474FF00A
:10219400E022136943F004031361704730B5CB7830
:1021A40003F00F02964613F0100F03D091F802E0EB
:1021B4004EEA020E0B78FBB10568002301E0426190
:1021C4000133072B17D801229A40B1F800C032EA34
:1021D4000C0CF5D19C004FF00F0C0CFA04FC25EA12
:1021E4000C050EFA04F42543CC78282CE7D0482CAF
:1021F400E6D10261E4E705600B88FF2B25D9456829
:10220400002303E0CC78482C1CD00133072B1BD8C7
:1022140003F1080C012202FA0CF2B1F800C032EA10
:102224000C0CF2D19C004FF00F0C0CFA04FC25EAC4
:102234000C0C0EFA04F444EA0C05CC78282CE1D1F9
:102244004261DFE70261E0E7456030BD836819421F
:1022540001D00120704700207047C368194201D0A3
:102264000120704700207047016170474161704749
:1022740000B5002815DB1D4B5B68C0F3034E82B22A
:1022840000F4401CBCF5401F0ED010F4801F1FD07A
:102294004FF0030C0CFA0EFC23EA0C0343F07063BA
:1022A4000CE0124BDB69E8E723F07063DFF83CE0F5
:1022B400DEF804C02CF0706CCEF804C019B1410DE6
:1022C40009018A40134300280DDB084A536000BD0E
:1022D4004FEA505C4FEA0C1C02FA0CFC23EA0C0394
:1022E40043F07063EAE7014AD361F0E7000001407C
:1022F400284B5B6803F00C03042B28D0082B29D04F
:10230400002B44D1244B0360224A5368C3F30313C4
:10231400DFF888C01CF803100368CB4043605168A1
:10232400C1F302211CF8011023FA01F18160516804
:10233400C1F3C2211CF80110CB40C3605268C2F340
:10234400813217498A5CB3FBF2F303617047124B85
:102354000360D9E70F4A53685268C3F383430233D7
:1023640012F4803F04D10F4A02FB03F30360CBE76E
:10237400084A526812F4003F04D00A4A02FB03F3ED
:102384000360C1E7044A02FB03F30360BCE7024BAA
:102394000360B9E70010024000127A00E05E000812
:1023A400DC5E000800093D0021B1054A936903433E
:1023B40093617047024A936923EA0003936170476B
:1023C4000010024021B1054AD3690343D361704729
:1023D400024AD36923EA0003D36170470010024024
:1023E4002DE9F041028802F441520F88B1F80280CD
:1023F4008E88CD880C89B1F80AE0B1F80CC0CB897D
:1024040047EA08073E4335432C434EEA040E4CEAA0
:102414000E0C43EA0C0313430380838B23F4006301
:1024240083830B8A0382BDE8F08121B1038843F0E2
:10243400400303807047038823F040030380704700
:10244400818170478089704703890B4201D0012044
:1024540070470020704700000388214A904212D040
:1024640002F5006290420ED0B0F1804F0BD0A2F57D
:102474009832904207D002F58062904203D002F570
:102484008062904203D123F070034A881343154AB3
:10249400904208D002F58062904204D023F4407345
:1024A4009BB2CA88134303808B8883850B8803857A
:1024B4000B4B98420FD003F5006398420BD003F501
:1024C4004063984207D003F58063984203D003F534
:1024D4008063984201D10B7A03860123838270477B
:1024E400002C01400010004000B5038C23F00103D0
:1024F4000384028CB0F804C0B0F818E02EF0730E18
:102504000B884EEA030E22F002020B891A434B8811
:102514001343154A90420FD002F5006290420BD04B
:1025240002F54062904207D002F58062904203D0E7
:1025340002F5806290420FD123F008034A891343C5
:1025440023F004038A8813432CF4407C8A894CEAE0
:10255400020CCA8942EA0C0CA0F804C0A0F818E0E6
:10256400CA888286038400BD002C014000B5038C18
:1025740023F010030384028CB0F804E0B0F818C010
:102584002CF4E64C0B881B029BB24CEA030C22F0A1
:1025940020020B891B019BB21A434B881B019BB27F
:1025A4001343134A904203D002F50062904217D1BC
:1025B40023F080034A89120192B2134323F04003AB
:1025C4008A88120192B213432EF4406E8A899200D3
:1025D40092B24EEA020ECA89920092B242EA0E0EFA
:1025E400A0F804E0A0F818C0CA880287038400BDDC
:1025F400002C014000B5038C23F480730384028C07
:10260400B0F804E0B0F81CC02CF0730C0B884CEA52
:10261400030C22F400720B891B029BB21A434B88F1
:102624001B029BB21343134A904203D002F500628B
:10263400904217D123F400634A89120292B21343E1
:1026440023F480638A88120292B213432EF4405E0C
:102654008A89120192B24EEA020ECA89120192B21A
:1026640042EA0E0EA0F804E0A0F81CC0CA888287D3
:10267400038400BD002C014000B5038C23F4805377
:102684000384B0F820C0B0F804E0828B22F4E64260
:102694000B881B029BB21A432CF4005C0B891B03AE
:1026A4009BB24CEA030C4B881B039BB243EA0C031A
:1026B400DFF830C0604503D00CF5006C604509D1EB
:1026C4002EF4804EB1F80CC04FEA8C1C1FFA8CFC1F
:1026D4004EEA0C0EA0F804E08283CA88A0F84020D9
:1026E400038400BD002C014021B1038843F00103A1
:1026F40003807047038823F00103038070471AB1F5
:1027040083890B4383817047838981F47F4181F0FE
:10271400FF010B4083817047038B23F008030B43B5
:1027240003837047038B23F40063090289B20B43CC
:1027340003837047838B23F008030B438383704721
:10274400838B23F40063090289B20B4383837047AC
:10275400A0F840107047028A83890B400A4202D0D5
:102764001BB918467047002070470120704781F458
:102774007F4181F0FF0101827047000030B587B0CE
:1027840004460D46028ACB8822F440521343038246
:102794008289898828896B8901430B4322F4B052CA
:1027A40022F00C021343A381A28AAB8922F4407263
:1027B4001343A38201A8FFF79BFD1D4B9C4223D02A
:1027C400039BB4F90C20002A20DB03EB830303EB07
:1027D40083032A689200B3FBF2F3164AA2FB0312A6
:1027E40052091101642002FB1033B4F90C20002AB1
:1027F40015DB1B0132330F4AA2FB0323C3F343133C
:102804000B43238107B030BD049BDAE703EB83035A
:1028140003EB83032A685200B3FBF2F3DDE7DB002A
:102824003233044AA2FB0323C3F342130B43E8E706
:10283400003801401F85EB5121B1838943F40053D3
:1028440083817047838923F4005383817047C1F3E4
:10285400421C01F01F0101238B40BCF1010F08D081
:10286400BCF1020F07D014303AB10268134303607D
:1028740070470C30F8E71030F6E7026822EA0303E9
:1028840003607047C1F30801818070478088C0F3FA
:102894000800704703880B4201D0012070470020D4
:1028A4007047C1F3421201F01F0C012303FA0CF329
:1028B400012A0CD0022A0DD0828A1340090A01226F
:1028C4008A400188114043B149B90846704782895A
:1028D4001340F3E7028A1340F0E7184670470120DB
:1028E4007047000008B56FF00400FFF747FC084B81
:1028F4001B68084AA2FB0323C3F34753064A137019
:10290400C3EB431203EB8203DB00044A138008BDCC
:102914002400002083DE1B43F2020020F00200208A
:102924000F4B1B7803FB00F04FF0E02358610022AB
:102934009A611A6942F001021A614FF0E0231B699F
:1029440013F0010F02D013F4803FF6D04FF0E023D0
:102954001A6922F001021A6100229A61704700BFCD
:10296400F20200200F4B1B8803FB00F04FF0E02322
:10297400586100229A611A6942F001021A614FF00B
:10298400E0231B6913F0010F02D013F4803FF6D04B
:102994004FF0E0231A6922F001021A6100229A61C1
:1029A400704700BFF002002082B0019002E0019B5A
:1029B400013B0193019B002BF9D102B07047000049
:1029C4002DE9F84F4FF6FF70FFF7EEFFAF4C1025DF
:1029D40065614FF08009C4F8149020272761DFF85F
:1029E400B082CF23C8F80C30402666612661256189
:1029F4006561C4F8109027614FF0000AC8F80CA074
:102A04006661266125616561C4F8109027614FF005
:102A1400810BC8F80CB06661266125616561C4F854
:102A2400109027613023C8F80C3066612661256157
:102A34004FF6FF70FFF7B8FF6561C4F81490276183
:102A4400ED23C8F80C306661266125616561C4F820
:102A5400109027616423C8F80C30666126612561F3
:102A64006561C4F8109027610323C8F80C306661CF
:102A7400266125616561C4F8109027611223C8F8A6
:102A84000C306661266125616561C4F81090276188
:102A9400C8F80CB06661266125614FF6FF70FFF738
:102AA40083FF6561C4F814902761E823C8F80C30EB
:102AB4006661266125616561C4F8109027618523EC
:102AC400C8F80C306661266125616561C4F8109010
:102AD4002761C8F80C506661266125616561C4F8F8
:102AE400109027617823C8F80C306661266125614F
:102AF4004FF6FF70FFF758FF6561C4F81490276123
:102B0400CB23C8F80C306661266125616561C4F881
:102B1400109027613923C8F80C306661266125615D
:102B24006561C4F8109027612C23C8F80C306661E5
:102B3400266125616561C4F810902761C8F80CA06E
:102B44006661266125616561C4F8109027613423AC
:102B5400C8F80C306661266125616561C4F810907F
:102B640027610223C8F80C306661266125614FF69F
:102B7400FF70FFF719FF6561C4F814902761F7230C
:102B8400C8F80C306661266125616561C4F810904F
:102B94002761C8F80C706661266125614FF6FF70E5
:102BA400FFF702FF6561C4F814902761EA23C8F8AF
:102BB4000C306661266125616561C4F81090276157
:102BC400C8F80CA06661266125616561C4F810909F
:102BD4002761C8F80CA06661266125614FF6FF7075
:102BE400FFF7E2FE6561C4F814902761B123C8F8C9
:102BF4000C306661266125616561C4F81090276117
:102C0400C8F80CA06661266125616561C4F810905E
:102C140027611B23C8F80C306661266125614FF6D5
:102C2400FF70FFF7C1FE6561C4F814902761B623F5
:102C3400C8F80C306661266125616561C4F810909E
:102C440027610A23C8F80C30666126612561656135
:102C5400C4F8109027614FF0A20BC8F80CB066615D
:102C6400266125614FF6FF70FFF79EFE6561C4F88B
:102C740014902761C023C8F80C3066612661256171
:102C84006561C4F81090276104E000BF00100140A2
:102C9400000C01403523C8F80C30666126612561BB
:102CA4004FF6FF70FFF780FE6561C4F8149027614A
:102CB400C123C8F80C306661266125616561C4F8DA
:102CC400109027611123C8F80C30666126612561D4
:102CD4006561C4F814902761C523C8F80C30666197
:102CE400266125616561C4F8109027614523C8F801
:102CF4000C306661266125616561C4F81090276116
:102D0400C8F80C306661266125616561C4F81490C9
:102D14002761C723C8F80C306661266125616561A7
:102D2400C4F810902761C8F80CB06661266125616B
:102D34006561C4F814902761F223C8F80C30666109
:102D4400266125616561C4F810902761C8F80CA05C
:102D54006661266125616561C4F8149027614FF0AE
:102D6400260AC8F80CA06661266125616561C4F86D
:102D7400109027610123C8F80C3066612661256133
:102D84004FF6FF70FFF710FE6561C4F814902761D9
:102D9400E023C8F80C306661266125616561C4F8DA
:102DA400109027610F23C8F80C30666126612561F5
:102DB4006561C4F810902761C8F80CA066612661AB
:102DC40025616561C4F8109027612423C8F80C308C
:102DD4006661266125616561C4F81090B846276173
:102DE400AC4F0B23FB606661266125616561C4F805
:102DF4001090C4F810800E23FB6066612661256183
:102E04006561C4F81090C4F810800923FB60666102
:102E1400266125616561C4F81090C4F810805422BD
:102E2400FA606661266125616561C4F81090C4F892
:102E34001080A822FA606661266125616561C4F884
:102E44001090C4F810804622FA60666126612561FC
:102E54006561C4F81090C4F810800C22FA606661B1
:102E6400266125616561C4F81090C4F810801722AA
:102E7400FA606661266125616561C4F81090C4F842
:102E84001080FB606661266125616561C4F810905D
:102E9400C4F810800F23FB606661266125616561BB
:102EA400C4F81090C4F810800722FA6066612661A5
:102EB40025616561C4F81090C4F810804FF0000AD1
:102EC400C7F80CA06661266125616561C4F8149099
:102ED400C4F81080E121F9606661266125616561AD
:102EE400C4F81090C4F81080C7F80CA0666126617D
:102EF40025616561C4F81090C4F810801921F96047
:102F04006661266125616561C4F81090C4F810807B
:102F14001B21F9606661266125616561C4F8109022
:102F2400C4F810800421F960666126612561656139
:102F3400C4F81090C4F81080FD60666126612561B4
:102F44006561C4F81090C4F81080FA606661266167
:102F540025616561C4F81090C4F810804FF02A0B05
:102F6400C7F80CB06661266125616561C4F81090EC
:102F7400C4F810804722FA606661266125616561A4
:102F8400C4F81090C4F810803922FA606661266192
:102F940025616561C4F81090C4F810800322FA60BA
:102FA4006661266125616561C4F81090C4F81080DB
:102FB4000622FA606661266125616561C4F8109095
:102FC400C4F81080FA606661266125616561C4F801
:102FD4001090C4F810803022FA6066612661256181
:102FE4006561C4F81090C4F810803822FA606661F4
:102FF400266125616561C4F81090C4F81080FB60F7
:103004006661266125614FF6FF70FFF7CDFC6561AF
:10301400C4F81490C4F810803623FB6066612661FE
:1030240025616561C4F81090C4F81080C823FB6062
:103034006661266125614FF6FF70FFF7B5FC656197
:10304400C4F81490C4F81080C7F80CB06661266107
:1030540025616561C4F81090C4F81080C7F80CA00D
:103064006661266125616561C4F81090C4F810801A
:10307400C7F80CA06661266125616561C4F81090EB
:10308400C4F81080C7F80CA06661266125616561EB
:1030940002E000BF000C0140C4F81090C4F8108096
:1030A400EF23FB606661266125614FF6FF70FFF731
:1030B4007BFC6561C4F81490C4F810802B23FB607A
:1030C4006661266125616561C4F81090C4F81080BA
:1030D400C7F80CA06661266125616561C4F810908B
:1030E400C4F81080C7F80CA066612661256165618B
:1030F400C4F81090C4F810800123FB606661266157
:1031040025616561C4F81090C4F810803F23FB600A
:103114006661266125614FF6FF70FFF745FC656126
:10312400C4F81490C4F810803A23FB6066612661E9
:1031340025616561C4F81090C4F810805523FB60C4
:103144006661266125616561C4F81490C4F8108035
:103154001123FB606661266125610948FFF724FCA1
:103164004FF6FF70FFF720FC6561C4F81490C4F8B3
:1031740010802923FB60666126612561BDE8F88F14
:10318400FCBF020000B584468E46114B10225A61E2
:1031940080215961202119610E492C20C8604021E9
:1031A400596119611A6100220EE0094B102159611D
:1031B40080201861202018610648C0F80CE04020E7
:1031C40058611861196101326245EED300BD00BF38
:1031D40000100140000C014070B582B00121084686
:1031E400FFF7E2F801213820FFF7DEF801211B4840
:1031F400FFF73EF803238DF8063010268DF807609C
:103204004FF6FF73ADF8043001AC21461448FEF7C5
:10321400C5FF2023ADF80430124D21462846FEF7A1
:10322400BDFF4023ADF8043021462846FEF7B6FF23
:10323400ADF8046021462846FEF7B0FF8023ADF8C0
:10324400043021462846FEF7A9FF0423ADF80430D4
:1032540021460548FEF7A2FF02B070BD000230000F
:10326400000C01400010014000140140104B4FF0CD
:1032740088321A605A600022DA6002F1804202F554
:103284008832802111614021116110215161202077
:103294005061D3F808C0106111614FF033321A60E5
:1032A4005A604FF6FF72DA601FFA8CF0704700BF65
:1032B400000C014010B50D4B10225A618021596158
:1032C400202119610A49D320C8604021596119613C
:1032D4001A61FFF7CBFFFFF7C9FFFFF7C7FF04022F
:1032E400A4B2FFF7C3FF204380B210BD0010014019
:1032F400000C014008B520B104210448FEF7B6FFD4
:1033040008BD04210148FEF7AFFFF9E700140140AE
:10331400072800F2A98070B50446544B187010F0C9
:10332400010F40F09980524BF0221A80514B4FF418
:10333400A0721A80504B10225A614FF0800EC3F8CD
:1033440014E04FF0200CC3F810C04C483621C16083
:103354004021596119611A61640144F008045A61F9
:10336400C3F810E0C3F810C0C460596119611A6150
:103374005A61C3F814E0C3F810C02A24C460596128
:1033840019611A615A61C3F810E0C3F810C000252E
:10339400C560596119611A615A61C3F810E0C3F834
:1033A40010C0C560596119611A61314C2488013C0F
:1033B400C4F307265A61C3F810E0C3F810C0C6600E
:1033C400596119611A61E4B25A61C3F810E0C3F893
:1033D40010C0C460596119611A615A61C3F814E0DC
:1033E400C3F810C02B24C460596119611A615A6171
:1033F400C3F810E0C3F810C0C560596119611A61BF
:103404005A61C3F810E0C3F810C0C560596119616E
:103414001A61184C2488013CC4F307255A61C3F887
:1034240010E0C3F810C0C560596119611A61E4B2B3
:103434005A61C3F810E0C3F810C0C460596119613F
:103444001A615A61C3F814E0C3F810C02C24C46094
:10345400596119611A6170BD054B4FF4A0721A804D
:10346400044BF0221A8065E7704700BF1C0000205F
:10347400200000201E00002000100140000C01402C
:1034840008B5FFF7A9FE0120FFF734FFFFF712FF8D
:10349400044B1880FFF794FA034B1878FFF738FFB2
:1034A40008BD00BFF40200201C0000202DE9F041FB
:1034B40086468C46984636491020486180264E61DF
:1034C40020250D61334C2A23E36040234B610B61BB
:1034D40008614FEA1E2748610E610D61E7604B6188
:1034E4000B6108615FFA8EF748610E610D61E76058
:1034F4004B610B61086196440EF1FF3248610E6125
:103504000D61C2F30F22E2604B610B6108611FFA87
:103514008EFE0EF1FF32D2B248610E610D61E2609F
:103524004B610B61086148614E610D612B22E260C1
:103534004B610B6108614FEA1C2248610E610D6109
:10354400E2604B610B6108615FFA8CF248610E61C5
:103554000D61E2604B610B610861C4440CF1FF3200
:1035640048610E610D61C2F30F22E2604B610B6191
:1035740008611FFA8CFC0CF1FF32D2B248610E6173
:103584000D61E2604B610B610861BDE8F08100BF31
:1035940000100140000C014008B501231A46FFF752
:1035A40085FF08BD38B515461C46FFF77FFF044B61
:1035B4001988284604FB00F0FFF7E4FD38BD00BF7E
:1035C4001400002008B5084B1B88834203D9074B1D
:1035D4001B888B4200D808BDFFF7DEFF044B198817
:1035E4000120FFF7CFFDF6E7200000201E00002099
:1035F400F60200202DE9F04F83B080468946A2EB05
:10360400000AA3EB010BBAF1000F0DDD01220092B9
:10361400BBF1000F14DD01230193DA451CDD56468E
:1036240000252F462C461BE0BAF1000F05D0A0EB75
:10363400020A4FF0FF320092EAE7CDF800A0E7E774
:10364400BBF1000F05D0A1EB030B4FF0FF33019347
:10365400E3E7CDF804B0E0E75E46E1E70134A4B265
:10366400731C9C4214DC49464046FFF7ABFF5744A9
:103674005D44BE4204DABF1B009B98441FFA88F8DD
:10368400AE42EBDAAD1B019B99441FFA89F9E5E7D9
:1036940003B0BDE8F08F0000F8B506460D461446A9
:1036A4001F469DF818304BB13B46FFF7FFFE134B06
:1036B400198807FB04F0FFF765FDF8BD0444A4B2C4
:1036C400013CA4B20B462246FFF794FF2F44BFB23D
:1036D400013FBFB23B46224639463046FFF78AFFD8
:1036E4003B46324629463046FFF784FF3B46224696
:1036F40029462046FFF77EFFDFE700BFF6020020E1
:10370400F8B5A2F12004A4B2284B1D68AA88EB885E
:1037140003FB02F6C6F3C7062D6806FB04F4FFF7A5
:10372400C5FE234B10225A61802159612021196161
:1037340020492C20C8604021596119611A61002078
:103744002EE01D4AB2F800C0194A102151618027A9
:10375400176120271761174FC7F80CC0402757611E
:10376400176111610133DBB2072B17D82A19115CD9
:1037740080221A411142E4D0104AB2F800C00C4A27
:10378400102151618027176120271761094FC7F85D
:103794000CC04027576117611161E3E70130C0B2E3
:1037A400B04201D20023DFE7F8BD00BF18000020BB
:1037B40000100140000C014014000020F60200201B
:1037C40070B504460D46164609E029462046FFF723
:1037D40097FF01360E4B1B689B8823449CB23278BA
:1037E400A2B10B4B19688B8823440A480088834292
:1037F40003DDCB882B449DB20024CB882B4406499F
:1038040009888B42E1DD00252C46DEE770BD00BF50
:1038140018000020200000201E000020024B188009
:10382400024B1980704700BFF602002014000020EC
:10383400034B1B880380034B1B880B80704700BF1E
:10384400F602002014000020014B1880704700BFCE
:10385400F6020020014B1880704700BF14000020BE
:1038640008B54823032201210548FDF76FF84823D2
:1038740003224FF400510348FDF768F808BD00BF68
:10388400000801400010014010B584B00121084631
:10389400FEF798FD41F28733ADF8083041F61F4337
:1038A400ADF804300023ADF80A30ADF8063001A9B4
:1038B4004FF08040FEF7D0FD012211464FF08040CA
:1038C400FEF71DFF1C238DF800304FF000038DF828
:1038D400013001248DF802408DF803406846FEF75C
:1038E4001DFC21464FF08040FEF7FEFE04B010BDE3
:1038F4002DE9F04383B0FEF717FBFEF7DFFA10B9AA
:1039040003B0BDE8F083FEF7CDFA0546FEF7D0FA22
:1039140004462846FCF79CFE8146FCF7CFFD014691
:103924002846FCF715FD2449FCF75AFC4FF07C515E
:10393400FCF710FD06462046FCF78AFE8046FCF79D
:10394400BDFD01462046FCF703FD1B49FCF748FC7E
:103954004FF07C51FCF7FEFC07463046FCF778FE3E
:1039640006463846FCF774FE009043463246494604
:10397400124800F097FAFDF73FFF8046FDF742FF3B
:103984000746FDF745FF0646FDF748FF0190009600
:103994003B46424621462846FDF742F90446084B79
:1039A4001B788342ACD028B1064800F07BFA044B64
:1039B4001C70A5E70448F8E700002041C85D000832
:1039C400F8020020A85D0008BC5D00080A4B1B78C3
:1039D40003B9704710B5084B00221A70FEF76EFA4F
:1039E40000B910BDFEF75EFA0446FEF761FA01461F
:1039F4002046FDF7DDFBF4E7FA02002008B5064B8C
:103A04001B7823B1FDF74EFCFEF780FA08BD03488E
:103A140000F0B2FAFAE700BFF9020020F45D0008F2
:103A240038B504460D4601211748FEF70FFC60B96E
:103A3400237853B1154A1378B3FA83F35B091370EF
:103A44001378E3B1124800F02DFA01210E48FEF775
:103A5400FDFB003818BF012020704FF400510D48C1
:103A6400FEF7F4FB08B92B785BB94FF40051094811
:103A7400FEF7ECFB003818BF0120287038BD06485B
:103A8400E1E7FFF7BBFFF0E700080140F90200207F
:103A94007C580008001001408858000808B5FEF75B
:103AA40021FFFFF7EDFCFCF7A5FFFEF715FAFDF784
:103AB4005FFBFFF7D5FEFFF7E7FEFDF797F8FEF78C
:103AC400B5FAFDF775FE08BD10B582B0FFF7E6FF45
:103AD4001A4800F051FAFDF7DFFB0146184800F0E0
:103AE400E1F9184800F048FA174800F045FA0023B5
:103AF4008DF807308DF806300DE0FFF7F9FE06E08B
:103B0400FDF7E2F86420FEF72DFF0134E4B2092C3E
:103B1400F6D9FFF75BFF0DF106010DF10700FFF782
:103B24007FFFFDF7ABFE094B1C78002CE5D0FDF7B9
:103B3400CBF86420FEF716FFEDE700BF245E000813
:103B4400505E0008685E00088C5E0008F9020020E0
:103B54007047FEE7FEE7FEE7FEE7704770477047F1
:103B64007047000008B501214FF08040FEF7F3FDD7
:103B740000B908BD01214FF08040FEF7F8FD134B5A
:103B84001B788BB104211248FEF76EFB114A13789F
:103B94000133DBB213703B2BEBD9134600221A70AE
:103BA4000D4B01221A70E4E704210948FEF755FB86
:103BB40038B9042100F1804000F58830FEF754FB49
:103BC400E4E704210248FEF751FBDFE7F902002095
:103BD40000100140FB020020FA02002008B540F268
:103BE40025510648FEF75DFE00B908BD0348FEF7FF
:103BF4004DFEC0B2FDF718FEF7E700BF00380140E4
:103C040082B00023019300932C4A136843F4803359
:103C140013602A4B1B6803F400330093019B0133A8
:103C24000193009B1BB9019BB3F5A06FF1D1234B0A
:103C34001B6813F4003F06D001230093009B012B63
:103C440004D002B0704700230093F7E71C4B1A68B6
:103C540042F010021A601A6822F007021A601A6809
:103C640042F002021A60A3F580535A685A605A68F7
:103C74005A605A6842F480625A605A6822F47C128C
:103C84005A605A6842F4E8125A601A6842F0807224
:103C94001A600A4B1B6813F0007FFAD0074B5A686E
:103CA40022F003025A605A6842F002025A60034B3F
:103CB4005B6803F00C03082BF9D1C2E70010024043
:103CC4000020024008B5FFF79BFF08BD08B5104B64
:103CD4001A6842F001021A6059680E4A0A405A6092
:103CE4001A6822F0847222F480321A601A6822F46C
:103CF40080221A605A6822F4FE025A604FF41F02AE
:103D04009A60FFF7DFFF044B4FF000629A6008BD32
:103D1400001002400000FFF800ED00E0002310B5A1
:103D24000446C0E90033C0E90433836081814366FB
:103D3400C2818361194608225C3000F04DFA0D4BB4
:103D4400246263620C4BA3620C4BE3620C4B23634F
:103D54000C4B9C4206D003F16802944202D0D0334B
:103D64009C4205D104F15800BDE8104000F04EBA61
:103D740010BD00BF294000084F40000887400008DC
:103D8400AD400008FC020020024A0349034800F049
:103D94006BB800BF28000020215300083800002021
:103DA40041680C4B10B59942044601D001F0B6FAB3
:103DB400A168094B994202D0204601F0AFFAE168AC
:103DC400064B994204D02046BDE8104001F0A6BA43
:103DD40010BD00BFFC02002064030020CC030020BF
:103DE40010B50A4B0A4A04211A600A480022FFF758
:103DF40095FF012209210848FFF790FFBDE8104014
:103E0400022212210548FFF789BF00BF34040020B5
:103E14008D3D0008FC02002064030020CC03002038
:103E2400014800F0F4B900BF39040020014800F053
:103E3400EFB900BF3904002010B50446FFF7F0FFC6
:103E4400236A1BB1BDE81040FFF7F0BF044B2362A7
:103E5400044B1B68002BF5D1FFF7C2FFF2E700BF4C
:103E6400A53D0008340400202DE9F8438046894626
:103E740014460026D4E90175013F05D52468002CB9
:103E8400F8D13046BDE8F883AB89012B07D9B5F9E1
:103E94000E30013303D029464046C84706436835EF
:103EA400EAE700000FB407B5064904AB086853F805
:103EB400042B8168019300F0C1FD03B05DF804EBAD
:103EC40004B0704734000020F8B5036A06460F4674
:103ED40084680BB9FFF7B0FF636ED90705D4A389D3
:103EE4009A0502D4A06D00F092F9A3891B0702D5AC
:103EF4002369002B38D12146304600F019F90028F7
:103F040032D04FF0FF3524E0002B04DAA26993424B
:103F140018DB0A2916D023685A1C22601970A3687A
:103F240017F8011F013BA3600029EDD18B421DDA74
:103F34000A212246304600F0BBF8411C0CBF05465E
:103F44000A2506E02246304600F0B2F80546681C11
:103F5400E5D1636EDA0705D4A3899B0502D4A06D6D
:103F640000F056F92846F8BD013FD8E70A25236832
:103F74005A1C22601D70ECE7024B01461868FFF7DB
:103F8400A3BF00BF340000200EB46FF0004110B591
:103F940000249DB01FAB029006900791049109483C
:103FA400094953F8042B0591006802A901931B9455
:103FB40000F08CFA029B1C701DB0BDE8104003B0E9
:103FC400704700BF340000200802FFFF0EB44FF416
:103FD400017370B500259DB021AC54F8046BADF8A5
:103FE40014301B9502900690FCF782FB0B4B039058
:103FF4000B934FF6FF7307900948ADF8163032461D
:10400400234602A900680F951495019400F0B0FBB3
:104014001DB0BDE8704003B0704700BF4B400008BE
:104024003400002010B50C46B1F90E10FEF763F809
:104034000028ABBF636DA3891B1823F48053ACBF66
:104044006365A38110BD002070472DE9F0411F4630
:104054008B890546DB050C46164605D5022300224E
:10406400B1F90E10FEF742F8A389324623F48053C7
:10407400A38128463B46B4F90E10BDE8F041FEF793
:1040840015B810B50C46B1F90E10FEF72FF8B4F9B7
:104094000C30421C0BBF23F4805343F48053A381A0
:1040A400A38118BF606510BDB1F90E10FEF71CB8EE
:1040B400F8B506460F46144618B1036A0BB9FFF764
:1040C400BBFEA369A360A3891A0726D5236923B37A
:1040D40023692068C01A6369834204DC21463046A0
:1040E40001F01CF9F8B9A3680130013BA36023680F
:1040F400FDB25A1C22601F706369834204D0A389F5
:10410400DB0712D50A2D10D12146304601F006F9FD
:10411400002818BF4FF0FF3507E02146304600F075
:1041240007F80028D4D04FF0FF352846F8BD00002A
:1041340038B5284B054618680C4618B1036A0BB904
:10414400FFF77AFEB4F90C30190720D4DA0607D445
:1041540009222A604FF0FF3043F04003A38138BDA9
:10416400580711D5616B41B104F14403994202D05F
:10417400284600F04FF8002363630022A38962609D
:10418400226923F02403226043F00803A3812369F6
:104194004BB9A38903F42073B3F5007F03D0214600
:1041A400284601F008F9B4F90C3013F0010208D0E4
:1041B4000022A26062695242A261226932B10020E7
:1041C400CDE7990758BF6269A260F6E71A06F6D5EB
:1041D400C0E700BF3400002003460244934200D1EC
:1041E400704703F8011BF9E710B56AB10139841867
:1041F400027811F8013F9A4204D10130A04201D063
:10420400002AF5D1D01A10BD1046FCE7704770475C
:104214007047000037B5002942D051F8043C0C1F08
:10422400002BB8BFE418019000F0E0F81D4A019893
:10423400136833B96360146003B0BDE8304000F024
:10424400DBB8A34208D9256861198B4201BF1968FC
:104254005B6849192160EDE71A465B680BB1A3421C
:10426400FAD911685518A5420BD124682144541871
:10427400A3421160E0D11C685B680C441460536075
:10428400DAE702D90C230360D6E7256861198B426B
:1042940001BF19685B684919216063605460CBE70A
:1042A40003B030BD4004002070B50F4C0E462168A9
:1042B400054611B901F046F920603146284601F05F
:1042C40041F9431C0ED0C41C24F00304A04207D0BF
:1042D400211A284601F036F9013008BF4FF0FF34A7
:1042E400204670BD0446FBE73C0400202DE9F8435A
:1042F400CD1C25F0030508350C2D38BF0C25002DE9
:10430400064601DBA94205D90C2300273360384651
:10431400BDE8F883DFF8D08000F068F8D8F8003002
:104324001C4644BB29463046FFF7BEFF431C0446E7
:1043340058D1D8F800402746002F43D1002C4BD049
:1043440023683946304604EB030901F0FBF8814544
:1043540042D1216830466D1A2946FFF7A5FF013086
:104364003AD023682B442360D8F800305A6862BBE3
:10437400C8F800700FE02268521B20D40B2A17D90A
:104384006119A342256018BF5960636808BFC8F863
:10439400001062514B60304604F10B0700F02CF81A
:1043A40027F00707231DFA1A1CBFDB1BA350AEE737
:1043B4006268A3420CBFC8F800205A60EBE72346AA
:1043C4006468AEE73C467F68B6E71A465B68A3427A
:1043D400FBD100235360DEE70C233046336000F04A
:1043E4000BF894E70560D6E7400400200148FFF786
:1043F4000EBF00BF380400200148FFF709BF00BF0B
:10440400380400202DE9F047D1F808A007469A4562
:104414000C4690461D4656D8B1F90C3013F4906FF3
:104424004FD062690969266802EB4202761A02EBF0
:10443400D27205F1010C5210B444944594BF9146D4
:10444400E146944588BF62465B0528D51146FFF7CF
:104454004DFF824660B33246216901F091F8A38989
:1044640023F4906343F08003A3810AEB0603C4F8AA
:1044740010A0AA46A9EB06062360C4F81490A6600F
:104484002A464146206801F043F80020A368A3EBC4
:104494000A03A36023682B442360BDE8F08701F07E
:1044A4007DF882460028E0D138462169FFF7B2FE44
:1044B4000C233B60A3894FF0FF3043F04003A381FA
:1044C400EBE75546DCE79A46DAE700002DE9F047CA
:1044D4001F468B8906461B060D4614469CB010D514
:1044E4000B6973B94021FFF701FF2860286130B9D7
:1044F4000C2333604FF0FF301CB0BDE8F08740233D
:104504006B610023099320238DF8293030234FF069
:1045140001080397644F8DF82A3023461A78994688
:104524001AB1252A03F10103F8D1B9EB040A0BD01F
:104534005346224629463046FFF764FF013000F017
:10454400A480099A5244099299F80030002B00F093
:104554009C8000224FF0FF33CDE9053209F10109B7
:10456400049207928DF853201A924C46052214F8AF
:10457400011B4D4800F0F6FF049AD0B9D00644BFA1
:1045840020238DF85330110744BF2B238DF853306B
:1045940099F800302A2B13D04B4600204FF00A0C18
:1045A40007991A781C46303A092A4CD9A8B10791C0
:1045B40013E0C01B08FA00F01043A1460490D4E7AE
:1045C400039B191D1B680391002BBBBF5B4242F088
:1045D400020207930793B8BF049223782E2B0CD1C1
:1045E40063782A2B34D1039B02341A1D1B6803926F
:1045F400002BB8BF4FF0FF330593DFF8B0900322D0
:104604004846217800F0AEFF38B14022049BA0EB6D
:10461400090082401343013404932178062224487C
:104624008DF8281000F09EFF002834D0214810BBDC
:10463400039B073323F0070308330393099B0134D7
:104644000344099369E701200CFB01210133A8E726
:1046540000224FF00A0C1346601C017804463039DE
:10466400092903D9002A08BF1346C5E701220CFB18
:1046740003130130F1E703AB00932A4630460E4B97
:1046840004A9AFF30080421CD8D1AB895B063FF587
:1046940031AF099830E703AB00932A463046064B06
:1046A40004A900F049FBEEE7E0640008E6640008B2
:1046B400EA640008000000000944000838B54B1CF7
:1046C4000D46144624D09389CDB223F02003938160
:1046D400636B52687BB1A36B934203DC214600F009
:1046E400DFFE20BB23685A1E226003F8015C636866
:1046F400013363600CE02169236859B1994209D2FE
:1047040013F8011CA94205D1013B01322360626008
:10471400284638BDC4E90F3204F14403636303231C
:10472400A363234603F8465F23600123E1E74FF0C8
:10473400FF35EDE710B50C46496B69B104F144034C
:10474400994201D0FFF766FD0020236C606363602B
:1047540013B1E36B236010BD23694FF0FF30236076
:1047640000236360A38943F02003A381F3E70000DF
:104774002DE9F04F0D460021ADF5237D80466F46AF
:10478400CDE9441101A946918D49DFF838B2A091D1
:104794008D490093A19192F80090B9F1000F00F0B7
:1047A40022811BF80930561C13F0080318D06B68DB
:1047B400002B04DC29464046A19B984728B92B6866
:1047C4001A781BF80220120701D43246E3E7459A0F
:1047D4000133013245926A682B60013A6A60E6E768
:1047E400B9F1250F52D14393419353782A2B02D127
:1047F4001023961C41930A2205E05646439B02FB74
:10480400031130394391B2461AF8011BA1F1300368
:10481400092BF2D903226D4800F0A4FE38B16B4B8A
:104824005646C01A0123419A83401343419316F814
:10483400013B782B25D8572B09D8252B26D01DD8FA
:10484400FBB94FF0FF300DF5237DBDE8F08FA3F1E8
:104854005802202A15D8DFE802F03414146A14141C
:10486400141414141475688B8B8B143F14141414BF
:104874007D643014147B146814143400453B022BFB
:1048840076D9032347930A23429329E06B68002BCC
:1048940005DC29464046A19B984700287BD12B681C
:1048A4001A784A4540F09F8001336A682B60459B23
:1048B400013A01336A60459387E7419A42F0200246
:1048C4004192419A42F40072419210226F2B34BFFC
:1048D40003230423429202E00023429303234793D9
:1048E4006B68002B05DC29464046A19B98470028AD
:1048F40051D1419B590605D42B681A781BF8022024
:10490400120737D4479B022B50DC3B462A464046CD
:1049140041A900F03DFB012865D002287FF455AF82
:1049240039E0082342930423D9E70A22CEE731462B
:1049340001A800F079FD419B064643F040034193F2
:104944000123CCE7419B43F0400341930023C6E796
:104954000223C4E74198C3063FF537AF3B68459A45
:10496400191D39601B68C4074CBF1A801A602CE7F4
:104974000523B4E7459A013245926A68013A002A50
:104984006A6002DD01332B60B6E729464046A19BED
:1049940098470028B0D0449800283FF452AFAB8920
:1049A40013F0400F18BF4FF0FF304CE7042B0FDC1F
:1049B4003B462A46404641A900F044FBABE700BF12
:1049C400C14600082F65000839470008E66400085E
:1049D400064B002B3FF4F9AE3B462A46404641A91C
:1049E400AFF3008097E744982DE700BF0000000074
:1049F400936810B4013B936007D59469A34201DB2B
:104A04000A2902D110BCFFF753BB1368581C10606D
:104A14001970084610BC7047F8B506460F46144690
:104A2400D518AC4201D1002007E03A46304614F8CC
:104A3400011BFFF7DDFF431CF3D1F8BD2DE9F0475F
:104A440006460D4614461F469CB018B1036A0BB9BE
:104A5400FFF7F2F96B6ED90705D4AB899A0502D436
:104A6400A86DFFF7D4FBAB891B0701D52B699BB954
:104A740029463046FFF75CFB70B16B6EDE0702D44B
:104A8400AB899C0504D54FF0FF301CB0BDE8F0871E
:104A9400A86DFFF7BDFBF6E70023099320238DF8EB
:104AA400293030234FF001080397694F8DF82A30DD
:104AB40023461A7899461AB1252A03F10103F8D13D
:104AC400B9EB040A0BD05346224629463046FFF779
:104AD400A3FF013000F0A480099A5244099299F886
:104AE4000030002B00F09C8000224FF0FF33CDE912
:104AF400053209F10109049207928DF853201A92A4
:104B04004C46052214F8011B514800F02BFD049A71
:104B1400D0B9D00644BF20238DF85330110744BFC9
:104B24002B238DF8533099F800302A2B13D04B46A1
:104B340000204FF00A0C07991A781C46303A092ACB
:104B44004CD9A8B1079113E0C01B08FA00F0104338
:104B5400A1460490D4E7039B191D1B680391002B05
:104B6400BBBF5B4242F0020207930793B8BF0492B3
:104B740023782E2B0CD163782A2B34D1039B023457
:104B84001A1D1B680392002BB8BF4FF0FF33059327
:104B9400DFF8C09003224846217800F0E3FC38B1E6
:104BA4004022049BA0EB0900824013430134049388
:104BB4002178062228488DF8281000F0D3FC00281C
:104BC4003DD0264810BB039B073323F0070308336B
:104BD4000393099B01340344099369E701200CFB07
:104BE40001210133A8E700224FF00A0C1346601C90
:104BF400017804463039092903D9002A08BF13462D
:104C0400C5E701220CFB03130130F1E703AB00936A
:104C14002A463046124B04A9AFF30080431CD8D176
:104C24006B6ED90705D4AB899A0502D4A86DFFF73A
:104C3400EFFAAB895B063FF526AF099825E703AB8E
:104C440000932A463046064B04A900F075F8E5E7C0
:104C5400E0640008E6640008EA640008000000005C
:104C64001D4A00082DE9F047164699468A680B69E3
:104C740080469342B8BF1346336091F843200C46F4
:104C8400089F0AB10133336023689D0642BF33682D
:104C940002333360256815F0060506D104F1190ABC
:104CA400E36832689B1AAB4228DC94F843302268EC
:104CB400003B18BF0123900629D404F1430249465E
:104CC4004046B847421C17D02368A16803F0060386
:104CD400042B12BF0025E5683368226904BFED1A6E
:104CE40025EAE5758B1A2B449142C8BF1D46002660
:104CF4001A34B54217D10020BDE8F0874946012394
:104D040052464046B847411CF6D00135C8E730202A
:104D1400E11881F843005A1C94F8451022440233E8
:104D240082F84310C9E70123224649464046B84762
:104D3400431CE1D00136DCE72DE9F04316460A7E38
:104D440085B0782A1F4605460C460C9B09D8622A72
:104D540001F1430C0AD8002A00F0EA80582A00F036
:104D6400B88004F1420884F842203BE0A2F16301D8
:104D74001529F6D801A050F821F000BFD94D00083C
:104D8400ED4D0008674D0008674D0008674D0008A9
:104D9400674D0008ED4D0008674D0008674D000899
:104DA400674D0008674D0008154F0008174E0008AE
:104DB400C94E0008674D0008674D00083D4F0008C4
:104DC400674D0008174E0008674D0008674D00083E
:104DD400D34E00081A6804F14208111D19601368C3
:104DE40084F842300123B6E01A682068111D196066
:104DF400030601D5136803E04106FBD5B2F9003080
:104E0400002B03DA2D225B4284F843200A225E49F8
:104E140012E01A682068111D1960030601D5136891
:104E240002E04106FBD51388227E57496F2A6DD1D3
:104E34000822002084F84300D4F804E0E046BEF1E0
:104E4400000FC4F808E006DB206853EA0E0E20F0D9
:104E5400040020600AD0B3FBF2F002FB103E11F80C
:104E64000EE09A4208F801ED0346F4D9082A0BD162
:104E74002368DA0708D5236962689A42DEBF3023C3
:104E840008F8013C08F1FF38ACEB08032361334612
:104E940021462846009703AAFFF7E4FE431C0ED0E0
:104EA4003146424628462369B847411C07D0236847
:104EB4009A0765D4E068039B9842B8BF184605B0CA
:104EC400BDE8F083226842F02002226078222F4954
:104ED40000E02D4984F845201868226800F1040E8A
:104EE400C3F800E0130601D5036802E05306FBD5BE
:104EF4000388D00744BF42F0200222600BB1102285
:104F040097E7226822F020022260F8E70A2290E75D
:104F14001A68D4F800E0101D61691EF0800F186053
:104F2400136801D0196003E01EF0400FFAD0198015
:104F34000023E0462361AAE71A68111D1960D2F81C
:104F4400008000214046626800F00CFB10B1A0EB29
:104F54000800606063682361002384F8433096E7A7
:104F640001233146284604F11902B847431CA6D050
:104F740008F10108E368039A9B1A4345F0DC99E7BA
:104F84004FF00008F6E700BFF1640008026500086E
:104F94002DE9F84315468A6880460C4632B98A6979
:104FA400002A14BF4FF0FF3201228A602268D10622
:104FB40003D41A68111D196016680027DFF8809061
:104FC400A06988B1012807D12B681A7863699B5CB2
:104FD40053B9002F32D023E0022821D12B681B784B
:104FE40019F803301B071BD423680137DA065EBFA8
:104FF4002B681B7806F8013B6B68013B6B602B68E0
:1050040001332B60A368013BA3604BB16B68002B99
:10501400D6DC29464046D4F8803198470028CFD0C2
:10502400236813F0100305D1E2680132E260A2693B
:1050340002B13370002023693B442361BDE8F88347
:105044002F6500082DE9F04F0C4699466E4B87B04A
:105054008246164693E8070003AB83E807006B4BD0
:10506400A1696B4A2746032908BF1A46A36801921F
:105074005A1EB2F5AE7F81BF6FF4AE7503EB05081F
:1050840040F25D13A36057F81C3B98BF4FF0000833
:105094003D464FF0000B43F450632360316803AB8B
:1050A4000222097853F82B0000F05CFA20B3BBF11C
:1050B400010F54D162682AB908212268616042F460
:1050C40000722260226822F4A0622260A268511E4B
:1050D400A1608AB13268511C3160127805F8012B45
:1050E4007268013A002A726006DC31465046D4F8F0
:1050F4008021904700287DD10BF1010BBBF1030FF8
:10510400CCD1616809B90A216160424B6069591ABE
:1051140000F08AF94FF0000BA368002B3BD03168F4
:1051240062690878125C002A35D03028226824D1BC
:10513400100522D50BF1010BB8F1000F03D0013398
:1051440008F1FF38A3607368013B002B73601BDD1B
:10515400336801333360A368013BA360DCE7BBF130
:10516400020FB3D1226802F4C061B1F5007FC8D147
:10517400102142F480726160A7E722F41062226079
:105184000B7805F8013BDEE731465046D4F8803110
:1051940098470028DFD02368DB050BD5BD4207D92B
:1051A40015F8011C32465046D4F87C319847013D2D
:1051B400BD4227D0226812F0100212D12A7039465B
:1051C4006368019E5046B047D9F8003021681A1D23
:1051D400C9F800208E061B680FD51860E3680133F8
:1051E400E36000202369ED1B5D442B44236107B079
:1051F400BDE8F08F4FF0000BCDE7CA074CBF188015
:105204001860EBE70120F2E724580008F156000883
:10521400D157000823650008B1F90C20F8B5170729
:1052240005460C4657D44B68002B02DC0B6C002B54
:1052340001DDE66A0EB90020F8BD002312F48052A5
:105244002F682B6033D0606DA389590705D5636837
:10525400C01A636B0BB1236CC01A024600232846A4
:10526400E66A216AB047421CB4F90C3006D12968B9
:105274001D292CD8284ACA40D60728D500226260A6
:105284002269D904226004D5421C01D12B6803B9D8
:105294006065616B2F600029CDD004F1440399420D
:1052A40002D02846FEF7B6FF00236363C3E7012359
:1052B4002846216AB047461CC6D12B68002BC3D0B0
:1052C4001D2B01D0162B01D12F60B4E7A38943F025
:1052D4004003A381B0E70F69002FACD0930718BF38
:1052E40000230E6808BF4B69F61B0F608B60002E0D
:1052F400A1DD33463A462846216AD4F828C0E0475F
:10530400002806DCA3894FF0FF3043F04003A3815B
:1053140092E70744361AEAE70100402038B50B69E2
:1053240005460C4613B91D46284638BD18B1036A14
:105334000BB9FEF781FDB4F90C30002BF3D0626E8B
:10534400D00704D4990502D4A06DFEF760FF284667
:105354002146FFF761FF636E0546DA07E4D4A389AB
:105364009B05E1D4A06DFEF753FFDDE770B50C4655
:10537400B1F90E10154600291E4696B004DB6A46A4
:10538400FCF7BEFE00280CDAA389002213F0800F7C
:105394000CBF4FF48061402100203260296016B0B8
:1053A40070BD019A4FF4806102F47042A2F500537B
:1053B4005A425A41F0E78B8973B59E0705460C465D
:1053C40007D504F14703236023610123636102B01D
:1053D40070BD01AB6A46FFF7C9FF009E28463146FF
:1053E400FEF784FFB4F90C3038B99A05EFD423F0F2
:1053F400030343F00203A381E3E743F08003A381A3
:10540400019BC4E904062060002BE0D02846B4F9CF
:105414000E10FCF77AFE0028D9D0A38923F00303E9
:1054240043F00103A381D2E770B50B7800F1FF05C7
:105434005E2B14BF0022012216460ABF4B784C1C77
:105444008C1C411E01F8016FA942FBD113B9621EE5
:10545400104670BD82F001012246C154144614F86E
:10546400015B2D2D05D05D2D18D0002DF0D02B46DD
:10547400F2E755785D2D01D12D23EDE7AB42FBDC3E
:105484001C4602320134A5420155FBDCEC1A013CF6
:10549400AB42A8BF002401332344DFE72246D7E709
:1054A4002DE9F0410C46496B04F1440399421BD1A8
:1054B4004FF48061FEF71AFF18B94FF0FF30BDE8D2
:1054C400F0814FF48063A36394F84630606380F8FE
:1054D400FF3394F8453000F2FD30437094F84430C3
:1054E400037020600020EAE7A66B77003A4600F0DC
:1054F40055F805460028E0D000EB06080146324680
:10550400404600F03DF8C4E90D57C4F80080E9E7CF
:10551400884210B501EB020407D8431EA1420AD009
:1055240011F8012B03F8012FF8E784422346F4D93C
:105534000244904200D110BD13F8011D02F8011D70
:10554400F7E7000038B50023054C054608462360FC
:1055540000F04CF9431C02D1236803B12B6038BD21
:1055640044040020034610B5C9B20244934201D159
:10557400002004E01846047801338C42F6D110BDB3
:105584000A44914200F1FF3300D1704710B511F87D
:10559400014B914203F8014FF9D110BD2DE9F041BF
:1055A400804615460C4621B91146BDE8F041FEF788
:1055B4009DBE2AB9FEF72EFE2C462046BDE8F0819A
:1055C40000F00CF98542064602D8B5EB500FF4D82A
:1055D40029464046FEF78AFE074650B1B5422A46A0
:1055E400214628BF3246FFF7CBFF21464046FEF74F
:1055F40011FE3C46E1E70000242B2DE9F0478846E4
:1056040001D8012B06D100F0E3F816230360002033
:10561400BDE8F0870D46344E294615F8014B375D39
:1056240017F00807F8D12D2C10D101272C788D1CE8
:1056340033F0100115D1302C0DD1297801F0DF01A0
:10564400582908D16C78023510230AE02B2C04BFAA
:105654002C788D1CECE7002BF6D1302C14BF0A23D8
:105664000823002107F1004E0EF1FF3EBEFBF3F9C3
:105674000E4603FB19EAA4F1300CBCF1090F0CD857
:105684006446A3421EDDB1F1FF3F03D0B14512D2FF
:105694004FF0FF3115F8014BEDE7A4F1410CBCF1DB
:1056A400190F01D8373CECE7A4F1610CBCF1190FD8
:1056B40008D8573CE5E701D1A245E9DB012106FB07
:1056C4000346E7E74B1C05D122237646036032B933
:1056D40030469DE707B17642002AF9D009B105F1B9
:1056E400FF38C2F80080F3E72F650008FFF784BF96
:1056F4002DE9F04386460D46334F284615F8014BF5
:105704003E5D16F00806F8D12D2C10D101262C7818
:10571400851C33F0100015D1302C0DD1287800F001
:10572400DF00582808D16C78023510230AE02B2CAE
:1057340004BF2C78851CECE7002BF6D1302C14BF69
:105744000A2308234FF0FF38B8FBF3F8002703FBC4
:1057540008F938466FEA0909A4F1300CBCF1090FC5
:105764000CD86446A3421EDDB7F1FF3F03D0804549
:1057740012D24FF0FF3715F8014BEDE7A4F1410CBD
:10578400BCF1190F01D8373CECE7A4F1610CBCF172
:10579400190F08D8573CE5E701D1A145E9DB0127FA
:1057A40000FB0340E7E77B1C06D122233846CEF8F2
:1057B400003032B9BDE8F08306B14042002AF9D086
:1057C40007B1691E1160F5E72F650008FFF790BF68
:1057D400014B1868704700BF3400002051F8043CA6
:1057E400181F002BBCBF0B58C0187047044A05494A
:1057F4001368002B08BF0B46184410601846704706
:105804004804002050040020F8B500BFF8BC08BCD0
:105814009E467047F8B500BFF8BC08BC9E4670476A
:1058240025650008286500082B65000853746F720D
:1058340065643A205B256C755D20543D25642E25F6
:105844006420432020483D25642E25642025250D11
:105854000A000000436C656172696E6720616C6CBC
:10586400207265636F7264732E2E2E0D000000008B
:10587400446F6E652E200D005041555345440D0A6A
:1058840000000000524553554D45440D0A000000E8
:1058940054485245534800000D0A3D3D3D20416C9B
:1058A40061726D205468726573686F6C6473203D17
:1058B4003D3D0D00202054656D70657261747572F4
:1058C400653A202564207E20256420430D0A0000CB
:1058D400202048756D69646974793A202020202558
:1058E40064207E2025642025250D0A003D3D3D3D94
:1058F4003D3D3D3D3D3D3D3D3D3D3D3D3D3D3D3DD4
:105904003D3D3D3D3D0D0A0D0000000048454C5015
:10591400000000000D0A3D3D3D20417661696C6147
:10592400626C6520436F6D6D616E6473203D3D3D17
:105934000D000000202054454D50203C6D696E3E02
:10594400203C6D61783E2020205365742074656D81
:10595400706572617475726520616C61726D20741A
:1059640068726573686F6C64202843290D00000019
:10597400202048554D49203C6D696E3E203C6D61A8
:10598400783E2020205365742068756D69646974BD
:105994007920616C61726D207468726573686F6CD4
:1059A4006420282525290D0A0000000020205448E1
:1059B4005245534820202020202020202020202031
:1059C4002053686F772063757272656E7420616C02
:1059D40061726D207468726573686F6C64730D0016
:1059E400202046414E203C647574793E20202020BE
:1059F40020202020204D616E75616C2066616E2030
:105A0400636F6E74726F6C2C20303D6F6666203944
:105A140039393D66756C6C0D00000000202044553A
:105A24004D50205B73746172745D205B6E5D202049
:105A34002044756D702073746F7265642074656D95
:105A4400702F68756D69207265636F7264730D00E1
:105A54002020504155534520202020202020202064
:105A640020202020205061757365202F20726573DB
:105A7400756D65206461746120636F6C6C6563741B
:105A8400696F6E0D000000002020434C522020203E
:105A940020202020202020202020202020436C654E
:105AA400617220616C6C2073746F7265642072651E
:105AB400636F7264730D0000202048454C50202011
:105AC4002020202020202020202020202053686F08
